:102211000473000000004102A1004102910141024A
:10222100A2004102920041029D004202A500FF422C
:1022310002A700FF420296000142029B00004202F7
:102241008F0000420293000042029E00004102A062
:10225100014102A3004102A40041028E0041029803
:05226100004102951F81
:1039A00075B10075B10075B30075B40075AC0075E4
:1039B000AD0012369153B1DF43B220121FC7121768
:1039C00026123F94123FF990029D7402F01237F2D2
:1039D000121AC97B017A01790CC003C002C0017BB5
:1039E000FF7A0079228B0B8A0C890D7B017A027990
:1039F000C08B0E8A0F8910D001D002D003122D7C0B
:033A000080D12250
:03002B00023C098B
:103C0900C0E0C0F0C083C082C0D075D000C000C081
:103C190004C005C006C007C2CF78731211A1EF24F2
:103C290001FFEE3400FEED3400FDEC3400FC787346
:103C39001211DDD007D006D005D004D000D0D0D0E5
:083C490082D083D0F0D0E032FC
:103F940043C91053C99F53C8FE43C98043C9087518
:103FA400CA6075CBF075CC0075CD00439B80D2AF51
:033FB400D2CA224C
:0822660041010B0041010A00D7
:0100220022BB
:01422F00226C
:1032530090028CE0FF7E00900225EEF0A3EFF09049
:103263000280E0FF7E00900269EEF0A3EFF090028F
:1032730083E0FF7E00900267EEF0A3EFF0900284FC
:10328300E0FF7E00900265EEF0A3EFF0900285E090
:10329300FF7E00900263EEF0A3EFF090027EE0FF6A
:1032A3007E00900261EEF0A3EFF0900286E0FF7ED5
:1032B3000090025FEEF0A3EFF090026DE4F0A374D0
:1032C300FFF090025FE0FEA3E0FF1241B6900261BF
:1032D300E0FEA3E0FF1241BF900263E0FEA3E0FF24
:1032E3001241C8900265E0FEA3E0FF1241D19002B3
:1032F30067E0FEA3E0FF1241DA900269E0FEA3E07B
:10330300FF1241E3900225E0FEA3E0FF12422C22CC
:0B4160009001511211F50000006422D4
:0B416B0090010F1211F50000060E225B
:0B41760090011A1211F5000000182241
:01423000226B
:10377E00900109E4F090026BE4F0A3E4F0900109EB
:10378E00E4F0900109E0FFEFC3940650499001095F
:10379E00E0FF749A2FF582E43401F583E0FF900187
:1037AE0009E0FE74572EF582E43402F583EFF090B3
:1037BE000109E0FF74572FF582E43402F583E0FF30
:1037CE007E0090026CE02FF090026BE03EF09001D4
:1037DE0009E004F080AC1228849001251211F50046
:0337EE0000000CCC
:0137F10022B5
:103D690090029D7402F07B017A01792DC003C00293
:103D7900C0017BFF7A3D79698B248A2589267527BD
:103D8900007BFF7A0079228B288A29892AD001D0E1
:103D990002D003123E249001301211F5000003E80D
:013DA90022F7
:01423100226A
:0B41810090015C1211F5000003E82221
:1040660090029DE0FFEF600312002E12267390016E
:094076003B1211F50000001222BA
:102FA90090017AE4F09002A2E0FFEF700E90029D8A
:102FB900E0FFEFB4020512360D804990029DE0FF53
:102FC900EFB40240123EEDEF603A9001C1E475F0B2
:102FD90001120FDCAFF0FED3EF9414EE94004024FD
:102FE9009001C1E4F0A3E4F09002A2E0FF9002A1F5
:102FF900EFF09002A2E4F0900250E4F090025DE458
:10300900F0A3E4F090010AE0FF04F0EFB40A1CAB6E
:103019005CAA5DA95EE92404F9EA3400FA120EE516
:10302900FFEF4408FFEF120F2B802C90010AE0FFFD
:1030390004F0EFC39414401F90010AE4F0AB5CAABA
:103049005DA95EE92404F9EA3400FA120EE5FFEFFE
:1030590054F7FFEF120F2B7B017A017943C003C0AC
:1030690002C0017BFF7A2F79A98B248A25892675CD
:1030790027007BFF7A0079228B288A29892AD001A7
:07308900D002D003123E2427
:01309000221D
:014232002269
:103E8F007B017A01796FC003C002C0017BFF7A3ECC
:103E9F00798F8B248A2589267527007BFF7A0079F5
:103EAF00228B288A29892AD001D002D003123E24DE
:013EBF0022E0
:062D7C008B088A09890A98
:102D8200751100E511C3940A4003022EB3AB0EAADB
:102D92000FA910120EE5FFEF6016AB0EAA0FA910D5
:102DA200120EE5FF8F11AB0EAA0FA910E4120F2B22
:102DB200AB08AA09A90AAF1175F00BEFA4F5828539
:102DC200F083121275C003C002C001AB0BAA0CA99A
:102DD2000DD082D083D0E06B7008E965827003EA7F
:102DE20065837003022EAEAF117E0BEF8EF0A4FF4F
:102DF200AEF0AB08AA09A90AE92FF9EA3EFA7582F0
:102E0200077583001211ADC000C001C002C0037873
:102E1200731211A1D003D002D001D000C3EF9BFFE7
:102E2200EE9AFEED99FDEC98FCC004C005C006C008
:102E320007AF117E0BEF8EF0A4FFAEF0AB08AA092C
:102E4200A90AE92FF9EA3EFA758203758300121185
:102E5200ADD007D006D005D004D3121159504D7809
:102E6200731211A1C004C005C006C007AF117E0BCA
:102E7200EF8EF0A4FFAEF0AB08AA09A90AE92FF978
:102E8200EA3EFA758207758300D007D006D005D0D6
:102E92000412117DAB08AA09A90AAF1175F00BEF54
:102EA200A4F58285F0831212751212F80511022D13
:072EB2008590010BE004F024
:012EB90022F6
:103C51008B128A138914AB15AA16A917C003C002C7
:103C6100C001AB12AA13A914121226AE18AF19E49F
:103C7100FCFDAB12AA13A9147582037583001211FE
:103C81007DAE1AAF1BE4FCFDAB12AA13A914758219
:083C91000775830012117D226A
:103E24008B218A228923E5276016AB24AA25A9269B
:103E3400C003C002C001AB21AA22A9231212262268
:103E4400AB28AA29A92AC003C002C001AB21AA2217
:063E5400A9231212262230
:101726007B017A01794EC003C002C0017BFF7A417A
:1017360079608B158A168917751800751948751AF8
:1017460000751B00D001D002D003123C517B017AF8
:1017560001790CC003C002C0017BFF7A41796B8B13
:10176600158A168917751800751900751A00751BE4
:1017760000D001D002D003123C517B017A017917C7
:10178600C003C002C0017BFF7A4179768B158A16A9
:101796008917751800751900751A00751B00D00198
:1017A600D002D003123C517B017A017922C003C0DA
:1017B60002C0017BFF7A37797E8B158A16891775E9
:1017C6001800751900751A00751B00D001D002D0DB
:1017D60003123C517B017A017959C003C002C00152
:1017E6007BFF7A4179818B158A16891775180075E2
:1017F6001900751A00751B00D001D002D003123CE7
:10180600517B017A01792DC003C002C0017BFF7AAA
:101816003D79698B158A1689177518007519237510
:101826001A00751B00D001D002D003123C517B0177
:101836007A017938C003C002C0017BFF7A4079661D
:101846008B158A16891775180075199B751A0075F8
:101856001B00D001D002D003123C517B017A0179E2
:1018660043C003C002C0017BFF7A2F79A98B158A7A
:10187600168917751800751900751A00751B00D0A2
:1018860001D002D003123C517B017A017964C00376
:10189600C002C0017BFF7A4079668B158A168917CC
:1018A60075180075190F751A00751B00D001D00246
:1018B600D003123C517B017A01796FC003C002C08C
:1018C600017BFF7A2F79A98B158A1689177518005F
:1018D60075190F751A00751B00D001D002D00312BE
:1018E6003C517B017A01794EC003C002C0017BFFE7
:1018F6007A4179608B248A2589267527017BFF7AB0
:101906000079228B288A29892AD001D002D0031295
:101916003E247B017A01790CC003C002C0017BFF23
:101926007A41796B8B248A2589267527017BFF7A74
:101936000079228B288A29892AD001D002D0031265
:101946003E247B017A017917C003C002C0017BFFE8
:101956007A4179768B248A2589267527017BFF7A39
:101966000079228B288A29892AD001D002D0031235
:101976003E247B017A017922C003C002C0017BFFAD
:101986007A37797E8B248A2589267527017BFF7A0B
:101996000079228B288A29892AD001D002D0031205
:1019A6003E247B017A017959C003C002C0017BFF46
:1019B6007A4179818B248A2589267527017BFF7ACE
:1019C6000079228B288A29892AD001D002D00312D5
:1019D6003E247B017A01792DC003C002C0017BFF42
:1019E6007A3D79698B248A2589267527017BFF7ABA
:1019F6000079228B288A29892AD001D002D00312A5
:101A06003E247B017A017943C003C002C0017BFFFB
:101A16007A2F79A98B248A2589267527007BFF7A58
:101A26000079228B288A29892AD001D002D0031274
:101A36003E247B017A017964C003C002C0017BFFAA
:101A46007A4279328B248A2589267527017BFF7A8B
:101A56000079228B288A29892AD001D002D0031244
:101A66003E247B017A01796FC003C002C0017BFF6F
:101A76007A3E798F8B248A2589267527007BFF7A03
:101A86000079228B288A29892AD001D002D0031214
:101A96003E247B017A017938C003C002C0017BFF76
:101AA6007A4079668B248A2589267527017BFF7AF9
:101AB6000079228B288A29892AD001D002D00312E4
:031AC6003E242299
:074204008B348A3589362254
:014233002268
:0841EC000001000200040008BC
:10226E0041026F014102480141024D014102490103
:0C227E0041024A0141024B0141024C00A8
:0941B6008F6390019AE563F02289
:0941BF008F6490019BE564F0227D
:0941C8008F6590019CE565F02271
:0941D1008F6690019DE566F02265
:0941DA008F6790019EE567F02259
:0941E3008F6890019FE568F0224D
:100003007F001241B67F001241BF7F001241C87FBB
:0F001300001241D17F001241DA7F001241E32237
:050026008F697F01223B
:03422C008F6A2274
:10360D00900250E4F0900251E4F0900233E0FFEFAD
:10361D001212A5362D04365F0836900E0000369036
:10362D0090026DE4F0A374FFF090025DE4F0A3E46A
:10363D00F0900180E0FF1241B6900181E0FF124150
:10364D00BF900182E0FF1241C8900183E0FF12415B
:10365D00D12290026DE4F0A374FFF090025DE4F0CE
:10366D00A3E4F0900181E0FF1241B6900182E0FFEA
:10367D001241BF900183E0FF1241C8900184E0FF29
:04368D001241D122F3
:1013820030313233343536373839202E43000401B8
:1013920018010203FF4212FF1715FF154A0201044A
:1013A200011219110AFF420BFF157DFF157D050180
:1013B200040113121919FF420BFF157DFF157D065B
:1013C20001040114170D19FF420BFF157DFF157D56
:1013D200070104011A201E0EFF420BFF157DFF15A7
:1013E2007D0E0104012719170AFF420BFF157DFF2D
:1013F200157D0F0104011D0D120AFF420BFF157D21
:10140200FF157D2301040116010203FF420BFF15A4
:101412007DFF157D030104011219110AFF420BFF22
:1014220014E4FF14E42401040113121919FF420BFE
:10143200FF14E4FF14E42501040114170D19FF42FF
:101442000BFF14E4FF14E4270104011A201E0EFF0F
:10145200420BFF14E4FF14E4280103020F1C1C0AD0
:10146200FF4098FF1638FF163800020302210F17BB
:1014720011FF404CFF1638FF1638000203020F1B03
:101482000A0AFF4108FF1638FF1638000203020F4E
:101492001C1C0AFF4148FF1638FF163800020302DF
:1014A2002719160AFF3939FF1638FF1638000203CA
:1014B200021B0F0A0AFF4236FF1638FF16380002D7
:1014C20003022719160AFF3174FF1638FF16380077
:1014D2000203021B0F0A0AFF4237FF1638FF1638B3
:1014E200000203051219110AFF4235FF1418FF16F4
:1014F200AF0000030513121919FF4235FF1429FF2B
:1015020016AF0000030514170D0AFF4235FF143A07
:10151200FF16AF000003051A201E0EFF4235FF140E
:101522004BFF16AF0000030511191C23FF3DE7FF17
:1015320014E4FF16AF00000401161D2411FF421926
:10154200FF15E3FF15E3040103010C0D0E0FFF422B
:1015520012FF1539FF16AF0200030116170C01FF27
:10156200413CFF15E3FF15E3000003010001020304
:10157200FF4224FF15E3FF15E310010305160E12C7
:101582000FFF4235FF1407FF15E300000305121990
:10159200110AFF4235FF13A1FF15E30000030513F3
:1015A200121919FF4235FF13B2FF15E300000305BC
:1015B20014170D0AFF4235FF13C3FF15E3000003A2
:1015C200051A201E0EFF4235FF13D4FF15E300005B
:1015D20002010C101010FF3FDAFF16AFFF16AF0129
:1015E2000102050C111112FF3F43FF15D2FF16AF86
:1015F200000002050C0D0E0FFF3C99FF154AFF1665
:10160200AF0000020516170C0DFF413CFF155BFFF2
:1016120016AF00000205160F0D11FF3D24FF156CD9
:10162200FF16AF00000205260C1B0DFF3313FF153A
:101632007DFF16AF000002031C0C1E17FF4235FF90
:10164200145CFF16AF000002031724110AFF423593
:10165200FF147EFF16AF000002031C0C180EFF429F
:1016620035FF14C2FF16AF000002020A042520FF54
:1016720041A2FF16AFFF16AF000002020A082520A2
:10168200FF41ACFF16AFFF16AF00000202000102DD
:1016920003FF4235FF16AFFF16AF0C000202000136
:1016A2000203FF4235FF16AFFF16AF0B0001060C17
:1016B200111112FF3F43FF15D2FF1715000001065B
:1016C20018200C1BFF4235FF166BFF171500000197
:1016D20006260F1124FF4235FF15E3FF1715000000
:1016E200010616240E0AFF4235FF1638FF171500B1
:1016F200000106180C171EFF4235FF14E4FF1715F0
:10170200000001061E1B1C0FFF4235FF168DFF173E
:1017120015000000000000000000000000000000B2
:0417220000000000C3
:10228A00410287004102880041027D0041028B0021
:10229A00410280004102830041028400410285001C
:1022AA0041027E004102860041028A0041027C000E
:1022BA004102890041027F0041028D0041028100F2
:1022CA00410282000350FF16AF41027000410271C1
:1022DA000041027200420276000042027800004287
:0422EA00027A000074
:014234002267
:014235002266
:101D660090027374F0F090027474F0F0123A0390DB
:101D760002C3E0FFEFC313FF9002C4E0FEEF4EFF85
:101D8600900273EFF0900273E0FFEF1212A51DA40C
:101D9600011DB4021DAC081DBC1000001DC490023C
:101DA6007374E0F0801E90027374D0F08016900277
:101DB6007374B0F0800E9002737470F08006900217
:101DC6007374F0F0900270E0FFEF1212A51DE600AA
:101DD6001E06011E3D021ECD031F8D0400001FC1FD
:101DE600900273E0FFEF64F07003021FC19002706F
:101DF6007401F0900273E0FF900272EFF0021FC1CF
:101E0600900273E0FFEF64F06025900273E0FF90AC
:101E16000272E0FEEE6F6008900270E4F0021FC1ED
:101E26009002707402F090027474F0F0021FC19078
:101E36000270E4F0021FC1900273E0FFEF64F070DD
:101E460003021ECD900271E004F0900271E0FFEFF4
:101E5600D39450400E9002707403F0900271E4F037
:101E6600021FC1900271E0FFEFD394285003021FB6
:101E7600C190027CE0FFEF3395E0FE7C007D1112FD
:101E86000F5FAB50AA51A952E92FF9EA3EFA7582C3
:101E960009758300121275C003C002C0017BFF7A68
:101EA600167938D082D083D0E06B7008E9658270ED
:101EB60003EA65837003021FC19002707403F090F9
:101EC6000271E4F0021FC1900273E0FFEF64F0704C
:101ED60003021F8D90027CE0FFEF3395E0FE7C004D
:101EE6007D11120F5FAB50AA51A952E92FF9EA3EB4
:101EF600FA758209758300121275C003C002C0010B
:101F06007BFF7A167938D082D083D0E06B7008E9EF
:101F160065827003EA6583605890027CE0FFEF33C8
:101F260095E0FE7C007D11120F5FAB50AA51A952BD
:101F3600E92FF9EA3EFA758210758300120EFEFF4C
:101F4600EF6401602C900289E0FFEF3395E0FE7CA0
:101F5600007D11120F5FAB50AA51A952E92FF9EA81
:101F66003EFA75820F758300120EFEFFEF6429702C
:101F76004A900272E0FFEF440AFF900274EFF0907D
:101F8600028B7401F08034900273E0FFEFB4F02B03
:101F9600900270E4F090028BE0FFEF700E900272F8
:101FA600E0FFEF440CFF900274EFF090028874019A
:101FB600F090028BE4F0900271E4F0900274E0FF7E
:011FC60022F8
:1038D1008E4D8F4E8D4F9002D0740AF0E54FD394E8
:1038E1000140089002D1740AF0801DAE4DAF4E7CAC
:1038F100037DE8120F717E007F64CFCDCFCECCCE99
:10390100120F719002D1EFF0AE4DAF4E7C007D648D
:10391100120F717E007F0ACFCDCFCECCCE120F71A8
:103921009002D2EFF0AE4DAF4E7C007D0A120F71C6
:08393100AF059002D3EFF02274
:101AC9007B017A0279D08B5C8A5D895EAB50AA5121
:101AD900A952758201758300120EFEFF90027FEFF5
:101AE900F090028AE0FF900289EFF09002D4E4F0CE
:101AF900900289E0FFEF3395E0FE7C007D11120F23
:101B09005FAB50AA51A952E92FF9EA3EFA75820F43
:101B1900758300120EFEFFEF1212A51CB2001B5BAB
:101B2900011B71021B8D031B9D041BB9051BC906F3
:101B39001BD9071C3C0B1C6B0C1BE90E1C92101CBF
:101B4900A2131BF9241C09251C19271C292800008C
:101B59001D62900234E0FEA3E0FF7D001238D190AF
:101B690002D0740CF0021D62900223E0FEA3E0FF94
:101B79007D021238D19002D0740CF09002D1740D0C
:101B8900F0021D62900225E0FEA3E0FF7D001238FD
:101B9900D1021D62900227E0FEA3E0FF7D0012380A
:101BA900D19002D07416F09002D1741DF0021D621A
:101BB90090025FE0FEA3E0FF7D001238D1021D62B2
:101BC900900261E0FEA3E0FF7D001238D1021D62A0
:101BD900900263E0FEA3E0FF7D001238D1021D628E
:101BE900900265E0FEA3E0FF7D001238D1021D627C
:101BF900900215E0FEA3E0FF7D001238D1021D62BC
:101C0900900217E0FEA3E0FF7D001238D1021D62A9
:101C1900900219E0FEA3E0FF7D001238D1021D6297
:101C290090021BE0FEA3E0FF7D001238D1021D6285
:101C3900021D62900295E0FF7E007D021238D1906C
:101C490002D2E0FF9002D0EFF09002D3E0FF9002C1
:101C5900D1EFF09002D27428F09002D37418F002F8
:101C69001D629002D0740DF09002D17401F09002BF
:101C7900D2E4F09002D3E4F09002D4E0FFEF440202
:101C8900FF9002D4EFF0021D6290022FE0FEA3E064
:101C9900FF7D001238D1021D6290022DE0FEA3E003
:101CA900FF7D021238D1021D62900289E0FFEF33F5
:101CB90095E0FE7C007D11120F5FAB50AA51A9522D
:101CC900E92FF9EA3EFA758202758300120EFEFFCA
:101CD9009002D0EFF0900289E0FFEF3395E0FE7CAF
:101CE900007D11120F5FAB50AA51A952E92FF9EAF1
:101CF9003EFA758203758300120EFEFF9002D1EF42
:101D0900F0900289E0FFEF3395E0FE7C007D11122F
:101D19000F5FAB50AA51A952E92FF9EA3EFA758231
:101D290004758300120EFEFF9002D2EFF090028933
:101D3900E0FFEF3395E0FE7C007D11120F5FAB50A1
:101D4900AA51A952E92FF9EA3EFA7582057583006D
:0D1D5900120EFEFF9002D3EFF0122673224F
:102A5B008B3C8A3D893E8C3F8D40E5427003022BB7
:102A6B002E90027DE0FFEF6060AB3CAA3DA93E12C9
:102A7B000FF2FFAEF0C3EF9540EE953F5016AB3C17
:102A8B00AA3DA93E120FF2FFAEF0EF240AFFEE347F
:102A9B0000FE8004AF417E00AB3CAA3DA93EEE8F09
:102AAB00F012101DAB3CAA3DA93E120FF2FFAEF087
:102ABB00D3EF9540EE953F404BAB3CAA3DA93EE58D
:102ACB003F8540F012101D803BAB3CAA3DA93E1246
:102ADB000FF2FFAEF0C3EF9540EE953F5016AB3CB7
:102AEB00AA3DA93E120FF2FFAEF0EF2401FFEE3428
:102AFB0000FE8004AF417E00AB3CAA3DA93EEE8FA9
:102B0B00F012101DAB3CAA3DA93E120FF2FFAEF026
:102B1B00EF65407003EE653F6003022BF290028875
:102B2B00E4F02290027DE0FFEF6062AB3CAA3DA98E
:102B3B003E120FF2FFAEF0AD417C00D3EF9DEE9C49
:102B4B004016AB3CAA3DA93E120FF2FFAEF0EF24AC
:102B5B00F6FFEE34FFFE8004AE3FAF40AB3CAA3D28
:102B6B00A93EEE8FF012101DAB3CAA3DA93E120FF1
:102B7B00F2FFAEF0D3EF9540EE953F404DAB3CAA44
:102B8B003DA93EE53F8540F012101D803DAB3CAAB0
:102B9B003DA93E120FF2FFAEF0AD417C00D3EF9D8D
:102BAB00EE9C4016AB3CAA3DA93E120FF2FFAEF0D5
:102BBB00EF24FFFFEE34FFFE8004AE3FAF40AB3C93
:102BCB00AA3DA93EEE8FF012101DAB3CAA3DA93ECB
:102BDB00120FF2FFAEF0AD417C00EDB50709ECB57D
:082BEB000605900288E4F022C7
:102443008F6B900289E0FFEF3395E0FE7C007D11F6
:10245300120F5FAB50AA51A952E92FF9EA3EFA7560
:10246300820F758300120EFEFFEF1212A524A10145
:1024730024B70224DA03250804251E05254C062566
:102483007A0725A80E25D91025EF1326042426192B
:1024930025262E272643282658290000266D7B0152
:1024A3007A027934754101856B427D007C02122AE0
:1024B3005B0226707B017A027923754101856B42A9
:1024C3007D087C00122A5B90028FE4F0A3E4F09075
:1024D3000250E4F00226707B017A027925754100EF
:1024E300856B427DFF7C00122A5B900225E0FEA3F0
:1024F300E0FF12422C900225E0FEA3E0FF90028C45
:10250300EFF00226707B017A027927754100856B13
:10251300427D327C00122A5B0226707B017A0279AB
:102523005F754100856B427DFF7C00122A5B900240
:102533005FE0FEA3E0FF1241B690025FE0FEA3E07E
:10254300FF900286EFF00226707B017A02796175B3
:102553004100856B427DFF7C00122A5B900261E0A3
:10256300FEA3E0FF1241BF900261E0FEA3E0FF90F3
:10257300027EEFF00226707B017A027963754100D7
:10258300856B427DFF7C00122A5B900263E0FEA311
:10259300E0FF1241C8900263E0FEA3E0FF900285D2
:1025A300EFF00226707B017A027965754100856B35
:1025B300427DFF7C00122A5B900265E0FEA3E0FFF0
:1025C3001241D1900265E0FEA3E0FF900284EFF098
:1025D3000226700226707B017A02792F75410085ED
:1025E3006B427DFF7C00122A5B0226707B017A021C
:1025F300792D754101856B427D0A7C00122A5B802F
:102603006C7B017A027915754180856B427DFF7C75
:1026130000122A5B80577B017A0279177541808506
:102623006B427DFF7C00122A5B80427B017A027938
:1026330019754180856B427DFF7C00122A5B802DDA
:102643007B017A02791B754180856B427DFF7C009B
:10265300122A5B80187B017A027913754100856B1E
:10266300427DFF7C00122A5B80037F00227F0122D0
:103B70008F5F8D6090027CE0FFEF3395E0FE7C006C
:103B80007D11120F5FAB50AA51A952E92FF9EA3EFD
:103B9000FA7582097583001212758B508A51895209
:103BA000E55FB5600B90027CE4F090028AE4F022BD
:0D3BB00090027C7401F090028A7401F022F2
:103588008F6C90027CE0FFEF3395E0FE7C007D11AC
:10359800120F5FAB50AA51A952E92FF9EA3EFA750A
:1035A80082097583001212758B508A518952E56C15
:1035B8001212A535CE0035D90135E60235F30336AA
:1035C80000040000360C90027CE4F090028AE4F0DB
:1035D8002290027C7401F090028A7401F022900219
:1035E8007C7402F090028A7402F02290027C7403C8
:1035F800F090028A7403F02290027C7404F0900226
:053608008A7404F022A9
:103709008F6D90027CE0FFEF3395E0FE7C007D1128
:10371900120F5FAB50AA51A952E92FF9EA3EFA7587
:1037290082097583001212758B508A518952E56D91
:103739001212A5374C0437570837640E37712B001E
:1037490000377D90027CE4F090028AE4F022900236
:103759007C7401F090028A7401F02290027C740258
:10376900F090028A7402F02290027C7403F09002B5
:053779008A7403F02238
:1033C000AB50AA51A952120EE5FFEFB4032BAB503C
:1033D000AA51A952758201758300120EFEFF900258
:1033E00082E0FED3EE6480F8EF648098406E900235
:1033F00082E0FF90027CEFF022AB50AA51A952125A
:103400000EE5FFEFB4022BAB50AA51A95275820111
:10341000758300120EFEFF900281E0FED3EE648001
:10342000F8EF6480984035900281E0FF90027CEFD5
:10343000F022AB50AA51A952758201758300120E79
:10344000FEFF90028DE0FED3EE6480F8EF6480987A
:0D345000400A90028DE0FF90027CEFF02218
:103DAA00AB50AA51A952120EE5FFEFB4030B9002D1
:103DBA007CE0FF900282EFF022AB50AA51A9521286
:103DCA000EE5FFEFB4020B90027CE0FF900281EF58
:0D3DDA00F02290027CE0FF90028DEFF022BD
:1037F20090028D7402F09002817402F07BFF7A15C0
:1038020079E38B508A5189529002A2E0FFEF1212A3
:10381200A5382600383101383E02384B03385804A7
:103822000000386490027CE4F090028AE4F0229076
:10383200027C7401F090028A7401F02290027C747E
:1038420002F090028A7402F02290027C7403F090DB
:10385200028A7403F02290027C7404F090028A744B
:0338620004F0224D
:10002E00121D66900275EFF0900278E0FEA3E0FFDD
:10003E00900278EEF0A3EFF0AB50AA51A952758260
:10004E0001758300120EFEFF90027FEFF090027595
:10005E00E0FFEF64F070030205EB900298E4F07B92
:10006E00017A0279D08B5C8A5D895E900296E4F00B
:10007E00A37401F090027AE4F0A37401F090027878
:10008E00E4F0A3E4F0900291E0FFEF7013121AC9AE
:10009E00900299E4F0A37401F09002917401F022A1
:1000AE009002917401F0900299E4F0A37401F09023
:1000BE000275E0FFEF1212A504A57A01797C015BAF
:1000CE00BA0113BC013DDA00E2DC056EEA04F4EC81
:1000DE00000008497F01122443EF6003020580905F
:1000EE00027CE014F090027CE0FFC3EF6480948009
:1000FE00400302058090027FE0FFEF14FF90027C28
:10010E00EFF00205807F00122443EF6003020580AA
:10011E0090027CE004F090027FE0FF90027CE0FE13
:10012E00EE6F600302058090027CE4F00205809081
:10013E000288E0FFEF70030208497F01122443EFAB
:10014E00600302058022020580220205809002884B
:10015E00E0FFEF70030208497F00122443EF6003B3
:10016E00020580220205802202058090027CE0FFBB
:10017E00EF3395E0FE7C007D11120F5FAB50AA515C
:10018E00A952E92FF9EA3EFA75820675830012121A
:10019E0075C003C002C0017BFF7A427935D082D090
:1001AE0083D0E06B7008E965827003EA6583602393
:1001BE00AB50AA51A95290027CE0FFEF75F011A44A
:1001CE00FFE92FF9E43AFA7582067583001212756B
:1001DE001212F890027CE0FFEF3395E0FE7C007D7A
:1001EE0011120F5FAB50AA51A952E92FF9EA3EFA4C
:1001FE00758210758300120EFEFFEF6401602B9066
:10020E00027CE0FFEF3395E0FE7C007D11120F5F64
:10021E00AB50AA51A952E92FF9EA3EFA7582107530
:10022E008300120EFEFFEFB4022D90027AE4F0A3CB
:10023E00E4F0AB50AA51A95275820C7583001212CC
:10024E00758B508A51895290027CE4F090028AE4B8
:10025E00F01233C002049690027CE0FFEF3395E07B
:10026E00FE7C007D11120F5FAB50AA51A952E92FEF
:10027E00F9EA3EFA758209758300121275C003C041
:10028E0002C0017BFF7A177915D082D083D0E06B44
:10029E007008E965827003EA658370030204969024
:1002AE00027CE0FFEF3395E0FE7C007D11120F5FC4
:1002BE00AB50AA51A952E92FF9EA3EFA7582097597
:1002CE008300121275C003C002C0017BFF7A16793B
:1002DE00AFD082D083D0E06B7008E965827003EAFC
:1002EE0065837003020474123DAA90027CE0FFEF56
:1002FE003395E0FE7C007D11120F5FAB50AA51A921
:10030E0052E92FF9EA3EFA758209758300121275C9
:10031E00C003C002C0017BFF7A1579E3D082D0837F
:10032E00D0E06B7008E965827003EA6583700B900C
:10033E0002A2E0FF12358802049690027CE0FFEFE5
:10034E003395E0FE7C007D11120F5FAB50AA51A9D0
:10035E0052E92FF9EA3EFA75820975830012127579
:10036E00C003C002C0017BFF7A16796BD082D083A6
:10037E00D0E06B7008E965827003EA6583700B90BC
:10038E000233E0FF12370902049690027CE0FFEF81
:10039E003395E0FE7C007D11120F5FAB50AA51A980
:1003AE0052E92FF9EA3EFA75820975830012127529
:1003BE00C003C002C0017BFF7A14795CD082D08367
:1003CE00D0E06B7008E965827003EA6583700B906C
:1003DE00023CE0FF12358802049690027CE0FFEFAB
:1003EE003395E0FE7C007D11120F5FAB50AA51A930
:1003FE0052E92FF9EA3EFA758209758300121275D9
:10040E00C003C002C0017BFF7A14797ED082D083F4
:10041E00D0E06B7008E965827003EA6583700F9017
:10042E00022BE0FEA3E0FF7D01123B70805A90028A
:10043E007CE0FFEF3395E0FE7C007D11120F5FAB89
:10044E0050AA51A952E92FF9EA3EFA75820975832D
:10045E00001212758B508A51895290027CE4F090F2
:10046E00028AE4F08022AB50AA51A95275820C7513
:10047E0083001212758B508A51895290027CE4F0DF
:10048E0090028AE4F01233C090029DE0FFEF600309
:10049E000205802202058090027CE0FFEF3395E09A
:1004AE00FE7C007D11120F5FAB50AA51A952E92FAD
:1004BE00F9EA3EFA758209758300121275C003C0FF
:1004CE0002C0017BFF7A167938D082D083D0E06BE0
:1004DE007008E965827003EA6583600302084902C9
:1004EE0005802202058090029DE0FFEF64037003F9
:1004FE00020580AB50AA51A95275820C7583001269
:10050E001275C003C002C0017BFF7A177915D08225
:10051E00D083D0E06B7008E965827003EA65836072
:10052E0024AB50AA51A95275820C75830012127514
:10053E008B508A51895290027CE4F090028AE4F04A
:10054E001233C0802D90027CE004F090027FE0FF19
:10055E0090027CE0FEEEB5071990027CE4F080126A
:10056E00900276E0FEA3E0FF900276EEF0A3EFF0AD
:10057E002222AB50AA51A952758201758300120E28
:10058E00FEFF90027CE0FEC3EE6480F8EF6480987C
:10059E00500590027CE4F090028AE0FF90027CE02D
:1005AE00FEC3EF6480F8EE648098402190028AE0EA
:1005BE00FFEF3395E0FE90027CE0FDED3395E0FC1D
:1005CE00D3ED9FEE6480F8EC648098400A90027C34
:1005DE00E0FF90028AEFF0121AC90207A790027C80
:1005EE00E0FFEF3395E0FE7C007D11120F5FAB5004
:1005FE00AA51A952E92FF9EA3EFA758210758300C5
:10060E00120EFEFFEF6401600302076C90027AE4A3
:10061E0075F001120FDCAFF0FEC3EF94DCEE940523
:10062E00507A90027CE0FFEF3395E0FE7C007D1166
:10063E00120F5FAB50AA51A952E92FF9EA3EFA7593
:10064E008210758300120EFEFFEF64016003020735
:10065E00A7900278E475F001120FDCAFF0FEEF8E7A
:10066E00F01212CB067E0014068D0028000007A79C
:10067E007B017A0279D08B5C8A5D895E0207A79036
:10068E000278E4F0A3E4F07B017A0279C68B5C8AEF
:10069E005D895E0207A70207A70207A790029DE0E9
:1006AE00FFEF640260030207A790027AE4F0A3E46E
:1006BE00F0AB50AA51A95275820C758300121275B7
:1006CE00C003C002C0017BFF7A177915D082D08398
:1006DE00D0E06B7008E965827003EA6583602EAB2B
:1006EE0050AA51A95275820C7583001212758B5047
:1006FE008A51895290027CE4F090028AE4F0123D15
:10070E00AA90027CE0FF90028AEFF0800C7BFF7AC9
:10071E001679AF8B508A51895290028AE0FF90026F
:10072E007CE0FEC3EF6480F8EE6480984021900276
:10073E008AE0FFEF3395E0FE90027CE0FDED33950D
:10074E00E0FCD3ED9FEE6480F8EC648098400A9054
:10075E00027CE0FF90028AEFF0121AC9803B9002F1
:10076E002BE0FEA3E0FFEF4E702F900296E0FEA36B
:10077E00E0FFEF4E6023900296E475F001120FDC5D
:10078E00AFF0FED3EF94E8EE9403400D900296E4A2
:10079E00F0A3E4F0900291E4F0900299E0FEA3E061
:1007AE00FFEF4E700302084990029DE0FFEF6402D6
:1007BE006003020849900299E475F001120FDCAF54
:1007CE00F0FED3EF94D0EE94074070900299E4F0CF
:1007DE00A3E4F0AB50AA51A95275820175830012A1
:1007EE000EFEFF90027CE0FEC3EE6480F8EF6480A4
:1007FE0098500590027CE4F090028AE0FF90027C13
:10080E00E0FEC3EF6480F8EE648098402190028A87
:10081E00E0FFEF3395E0FE90027CE0FDED3395E0D6
:10082E00FCD3ED9FEE6480F8EC648098400A900251
:0B083E007CE0FF90028AEFF0121AC964
:01084900228C
:103EED00AB50AA51A952C003C002C0017BFF7A1684
:103EFD0079AFD082D083D0E06B7008E96582700312
:0B3F0D00EA658370037F01227F002221
:103091008F538C548D55E5531212A530B20030C6B2
:1030A1000130DA0230EE03310104313A050000311A
:1030B10071E554FF7E00EF54FFF5D2AF55EF54FF99
:1030C100F5DA023171E554FF7E00EF54FFF5D3AF1D
:1030D10055EF54FFF5DB023171E554FF7E00EF54EB
:1030E100FFF5D4AF55EF54FFF5DC023171E554FF24
:1030F1007E00EF54FFF5D5AF55EF54FFF5DD80703D
:10310100A2AF9201C2AF75C7AA75C755439101A27B
:103111000192AFE554FF7E00EF54FFF5C4AF55EFC8
:1031210054FFF5CCA2AF9201C2AF75C7AA75C755BE
:103131005391FEA20192AF8037A2AF9201C2AF7547
:10314100C7AA75C755439101A20192AFE554FF7E0D
:1031510000EF54FFF5C5AF55EF54FFF5CDA2AF9287
:1031610001C2AF75C7AA75C7555391FEA20192AFAF
:03317100D2DE2289
:1036910043DE0143DE0243DE0443DE0843DE104322
:1036A100DE2053DF3F75D10F75D9FF7DCF7C077FBA
:1036B100001230917DCF7C077F011230917DCF7C4C
:1036C100077F021230917DCF7C077F031230917DFD
:1036D100CF7C077F041230917DCF7C077F051230AC
:1036E10091D2DF53B3FB43B40453B3FD43B402534C
:1036F100B3FE43B40153B1FE43B20153B1FD43B232
:083701000253B1F743B20822A4
:0A22EE004202AD00004202C10000F0
:03002300023CDFBD
:103CDF00C0E0C0F0C083C082C0D075D000C000C0AB
:103CEF0001C002C003C004C005C006C0077E017F2B
:103CFF007A7C017DB17B0112084AD007D006D0052E
:103D0F00D004D003D002D001D000D0D0D082D08345
:053D1F00D0F0D0E032FD
:0841F4008F6EC29B856E9922BB
:0841FC008F6FD29B856F9922A1
:10386500900292E0FFEF701290023CE0FFEF700AC9
:1038750090029DE0FFEF640370519001BDE0FEA34F
:10388500E0FFEF4E604590017AE0FF7E00C3EF94C4
:103895002CEE64809481403390025DE0FEA3E0FF4E
:1038A5009001A0EFF090024FE0FF9001A1EFF0D260
:1038B500859001BDE4F0A3E4F09001B9E4F0A3E440
:0C38C500F09002AFE4F07F881241F42282
:103FF90053B1BF53B2BF53B17F53B27F7F917ED0CC
:0C4009007D037C001234F7D2ACD2AF2251
:044015008E568F57DD
:10401900AE56AF578F828E83E493FE740193FFEE01
:07402900FF7E008F58AF5825
:01403000226D
:062BF3008E2B8F2C8D2DAE
:102BF900752E00852C2FE52FC394805005752F0065
:102C09008003752F80753200753380AE2B7F00AD40
:102C19002F7C00EF2DFFEE3CFE8E308F31AE32AFB0
:102C290033EF64007003EE64016029AE30AF318F79
:102C3900828E83E493FFAC32AD338D828C83EFF0C7
:102C4900052E0533E533700205320531E531700291
:102C5900053080C9852C2FE52FC394805012AF2FE2
:102C69007E00EF2480FFEE3400FE8E328F33800821
:102C7900AF2F7E008E328F33AE32AF338F828E8389
:102C8900E52DF0852CA6E52BFF7E008FA775AEFFFD
:102C9900A2AF9201C2AF75C7AA75C755439F01A2DA
:102CA9000192AFA2AF9201C2AF75C7AA75C75543CA
:102CB900A501A20192AF75AF22A2AF9201C2AF7571
:102CC900C7AA75C75543A401A20192AF852C2FE568
:102CD9002FC394805005752F008003752F8075329E
:102CE90000753380852FA6E52BFF7E008FA7A2AF45
:102CF9009201C2AF75C7AA75C755439F01A2019238
:102D0900AFA2AF9201C2AF75C7AA75C75543A50156
:102D1900A20192AF75AF21AE32AF33EF64FF4E60BF
:102D29002BAE32AF338F828E83E0FF8FAEA2AF928C
:102D390001C2AF75C7AA75C75543A401A20192AFD5
:102D490005A60533E5337002053280CBA2AF9201A7
:102D5900C2AF75C7AA75C75553A5FEA20192AFA206
:102D6900AF9201C2AF75C7AA75C755539FFEA2019D
:022D790092AF17
:012D7B002235
:1022F800602F02110000000000C800C800C800C814
:1023080000C800C800000001000000320000000002
:10231800000A00C8000008000100010101010000D6
:1023280001000244024087A38CFF440244000000DD
:0123380000A4
:103BBD00900231E4F0A3E4F0900225E4F0A3E4F0E8
:103BCD00900269E4F0A3E4F0900267E4F0A3E4F05E
:103BDD00900265E4F0A3E4F0900263E4F0A3E4F056
:103BED00900261E4F0A3E4F090025FE4F0A3E4F04E
:0C3BFD00900225E0FEA3E0FF12422C2203
:0B418C00900299740BF0A3749AF022CB
:103FDA00C2859002A2E4F09002A2E0FF9002A1EF53
:0F3FEA00F09002A2E0FF900292EFF0123F6D22E2
:044220001241152210
:0A41A2009002337404F01242202250
:0A41AC009002337408F01242202242
:103EC0009002A2E0FFEF64026003123BBD9002A2E9
:103ED0007402F09002A2E0FF9002A1EFF09002A223
:0D3EE000E0FF900292EFF0C28512407F22B9
:0C413C00900229E4F0A3E4F0123EC0223F
:103D2400900231E4F0A37401F09002527401F09017
:103D34000250E4F0900251E4F090025DE4F0A3E458
:103D4400F09002A27403F09002A2E0FF9002A1EFAF
:103D5400F09002A2E0FF900292EFF0123BBD1240FD
:053D6400E412407F2283
:103939009002A3E4F090028EE4F09002A07401F0EA
:1039490090028AE4F090027CE4F0900289E4F0901D
:10395900027FE4F090028DE4F0900281E4F01242DB
:103969002F7B017A01792DC003C002C0017BFF7A48
:103979003D79698B248A2589267527017BFF7A0081
:1039890079228B288A29892AD001D002D003123EB4
:073999002490029DE4F022DE
:014236002265
:10317400900234E4F0A37401F0900225E4F0A3E497
:10318400F09002337408F090023CE4F090025FE4A3
:10319400F0A3E4F0900261E4F0A3E4F0900263E4AD
:1031A400F0A3E4F0900265E4F0A3E4F0900267E495
:1031B400F0A3E4F0900269E4F0A3E4F090022BE4BD
:1031C400F0A3E4F09002A2E4F09002A2E0FF9002E7
:1031D400A1EFF09002A2E0FF900292EFF090022D96
:1031E400E4F0A3740AF0900223E4F0A37401F090D5
:1031F4000231E4F0A3E4F0900229E4F0A3E4F090B7
:10320400022FE4F0A374C8F09002917401F0C28517
:10321400123F18900225E0FEA3E0FF12422C900218
:1032240080E4F0900283E4F0900284E4F09002855C
:10323400E4F090027EE4F0900286E4F09002A5E4CB
:0F324400F0A374FFF09002A7E4F0A374FFF02250
:014237002264
:1040980090023CE0FFEF60059002A2E4F090023C41
:0640A800E4F012412222A7
:10404C0090023CE0FFEFD3940140059002A2E4F013
:0A405C0090023C7401F01241222290
:044224001240F6222C
:0D41080090022BE4F0A37401F0123FB722E7
:04422800123FB72268
:0C41480090022BE4F0A3E4F0123FB72239
:07420B00122EBA12407F22BF
:103DE700900215E4F0A374C8F0900217E4F0A374EE
:103DF700C8F0900219E4F0A374C8F090021BE4F035
:103E0700A374C8F090021DE4F0A374C8F090021FD9
:0D3E1700E4F0A374C8F0122EBA12407F220E
:103F43009002A2E0FFEF6003123BBD9002A2E4F0F7
:103F53009002A2E0FF9002A1EFF09002A2E0FF9096
:0A3F63000292EFF0C28512407F22A7
:1033130090029DE0FFEFB402059002A0E4F090025A
:10332300A2E0FFEF6404601D9002A27404F0900217
:10333300A2E0FF9002A1EFF09002A2E0FF900292C0
:10334300EFF0123BBD900231E4F0A3E4F090028C65
:10335300E0FF7E00900225EEF0A3EFF0900280E004
:10336300FF7E00900269EEF0A3EFF0900283E0FF8E
:103373007E00900267EEF0A3EFF0900284E0FF7E00
:1033830000900265EEF0A3EFF0900285E0FF7E006F
:10339300900263EEF0A3EFF090027EE0FF7E0090D8
:1033A3000261EEF0A3EFF0900286E0FF7E00900250
:0D33B3005FEEF0A3EFF012325312407F22C4
:103C99009002A2E0FFEF64016016900250E4F090F8
:103CA90002527401F090028FE4F0A3E4F0123BBDDC
:103CB9009002A27401F09002A2E0FF9002A1EFF03D
:103CC9009002A2E0FF900292EFF0900231E4F0A39B
:063CD900E4F012407F221E
:0742120012407F1240C022A0
:0742190012407F1240D22287
:082339004101CA004101C90085
:1040AE008E598F5A8D5BAD5BAF5AAE59122BF37F83
:0240BE000122DD
:0C4154008E618F62AF62AE6112401522D6
:103F6D00900234E0FEA3E0FFEEFF7E00AD077F027E
:103F7D007E461240AE900234E0FEA3E0FFAD077F17
:073F8D00037E461240AE2244
:102EBA0090025FE0FEA3E0FFAD077F047E4612406A
:102ECA00AE900261E0FEA3E0FFAD077F057E4612E9
:102EDA0040AE900263E0FEA3E0FFAD077F067E46A8
:102EEA001240AE900265E0FEA3E0FFAD077F077EC9
:102EFA00461240AE900267E0FEA3E0FFAD077F08EE
:102F0A007E461240AE900269E0FEA3E0FFAD077F65
:102F1A00097E461240AE900225E0FEA3E0FFAD070F
:102F2A007F177E461240AE900215E0FEA3E0FFAD89
:102F3A00077F0A7E461240AE900217E0FEA3E0FF2A
:102F4A00AD077F0B7E461240AE900219E0FEA3E069
:102F5A00FFAD077F0C7E461240AE90021BE0FEA337
:102F6A00E0FFAD077F0D7E461240AE90021DE0FEE7
:102F7A00A3E0FFAD077F0E7E461240AE90021FE02F
:102F8A00FEA3E0FFAD077F0F7E461240AE90026DB2
:0F2F9A00E0FEA3E0FFAD077F1F7E461240AE2290
:1040C000900223E0FEA3E0FFAD077F167E4612407C
:0240D000AE221E
:1040D200900227E0FEA3E0FFAD077F187E46124064
:0240E200AE220C
:103FB70090022BE0FEA3E0FFAD077F137E46124081
:103FC700AE90022DE0FEA3E0FFAD077F1A7E4612FA
:033FD70040AE22D7
:1040E400900231E0FEA3E0FFAD077F147E4612404C
:0240F400AE22FA
:1040F60090022FE0FEA3E0FFAD077F157E4612403B
:02410600AE22E7
:10407F009002A2E0FD7F127E461240AE900292E0C7
:09408F00FD7F117E461240AE22B5
:0D411500900233E0FD7F107E461240AE2286
:0D41220090023CE0FD7F197E461240AE2267
:0D412F00900238E0FD7F1E7E461240AE2259
:103F18007DA67F017E461240AE123F6D123FB7125A
:103F2800407F1240C01240D21241151240F6124092
:0B3F3800E412412212412F122EBA2287
:101FC7007F017E46124154EF64A66004123F182237
:101FD7007F027E461241547E00EF7F00FE9002345E
:101FE700EEF0A3EFF0900234E0FEA3E0FFC006C0DE
:101FF700077F037E46124154EFFD7C00D007D006D1
:10200700EE4CFEEF4DFF900234EEF0A3EFF07F04AD
:102017007E461241547E0090025FEEF0A3EFF07F00
:10202700057E461241547E00900261EEF0A3EFF068
:102037007F067E461241547E00900263EEF0A3EFC6
:10204700F07F077E461241547E00900265EEF0A3B2
:10205700EFF07F087E461241547E00900267EEF053
:10206700A3EFF07F097E461241547E00900269EE8D
:10207700F0A3EFF07F167E461241547E00900223B4
:10208700EEF0A3EFF07F177E461241547E009002D8
:1020970025EEF0A3EFF07F187E461241547E0090A4
:1020A7000227EEF0A3EFF07F137E461241547E0025
:1020B70090022BEEF0A3EFF07F147E461241547E80
:1020C70000900231EEF0A3EFF07F157E46124154E7
:1020D7007E0090022FEEF0A3EFF07F1F7E461241A5
:1020E700547E0090026DEEF0A3EFF07F107E461253
:1020F7004154900233EFF07F1A7E461241547E001E
:1021070090022DEEF0A3EFF07F127E46124154901D
:1021170002A2EFF07F117E46124154900292EFF037
:102127007F1E7E46124154900238EFF07F197E469B
:1021370012415490023CEFF07F0A7E461241547ED2
:1021470000900215EEF0A3EFF07F0B7E461241548C
:102157007E00900217EEF0A3EFF07F0C7E4612414F
:10216700547E00900219EEF0A3EFF07F0D7E461229
:1021770041547E0090021BEEF0A3EFF07F0E7E46E7
:102187001241547E0090021DEEF0A3EFF07F0F7E08
:10219700461241547E0090021FEEF0A3EFF090022A
:1021A700917401F09002A2E0FF9002A1EFF090027B
:1021B70025E0FEA3E0FF90028CEFF0900269E0FEBD
:1021C700A3E0FF900280EFF0900267E0FEA3E0FF3C
:1021D700900283EFF0900265E0FEA3E0FF90028497
:1021E700EFF0900263E0FEA3E0FF900285EFF0902E
:1021F7000261E0FEA3E0FF90027EEFF090025FE055
:0A220700FEA3E0FF900286EFF02234
:10084A008E438F448C458D468B47209803020D9C1E
:10085A00C298209A13AF997E00AC45AD468D828C22
:10086A0083EEF0A3EFF08015AF997E00EE4401FE0F
:10087A00AC45AD468D828C83EEF0A3EFF0AE45AF6A
:10088A00468F828E83E0FEA3E0FFEE30E003020A89
:10089A001190029DE0FFEF64026003020A11AE4567
:1008AA00AF468F828E83E0FEA3E0FF7E00EF4E709C
:1008BA005BAE45AF468F828E83E5822414F582E5CE
:1008CA00833400F5837401F0AE45AF468F828E8380
:1008DA00E5822404F582E5833400F583E4F0A3E499
:1008EA00F0AE45AF468F828E83A3A3E4F0A3E4F073
:1008FA00AE45AF468F828E83E5822406F582E58374
:10090A003400F583E4F0A3E4F0020D9CAE45AF4653
:10091A008F828E83E0FEA3E0FF7E00EF64884E6044
:10092A00030209F5AE45AF468F828E83E582241411
:10093A00F582E5833400F5837402F0AE45AF468F45
:10094A00828E83E5822404F582E5833400F583E40C
:10095A00F0A3E4F0AE45AF468F828E83A3A3E4F002
:10096A00A3E4F0AE45AF468F828E83E5822406F576
:10097A0082E5833400F583E4F0A3E4F09002AAE46C
:10098A00F09002A2E0FFEF64027003020D9CAE45F4
:10099A00AF468F828E83E5822410F582E583340088
:1009AA00F583E475F001120FDCAFF0FED3EF940685
:1009BA00EE94005003020D9C7B017A01796FC0030B
:1009CA00C002C0017BFF7A3E798F8B248A25892653
:1009DA007527017BFF7A0079228B288A29892AD0F8
:1009EA0001D002D003123E24020D9CAE45AF468FC1
:1009FA00828E83E5822410F582E5833400F583E450
:100A0A00F0A3E4F0020D9CAE45AF468F828E83E5DB
:100A1A00822414F582E5833400F583E0FFEF640154
:100A2A006003020C60AE45AF468F828E83A3A3E0BB
:100A3A00FEA3E0FFEF4E6003020AE8AE45AF468F21
:100A4A00828E83E0FEA3E0FF7E00EF4E6031AE456A
:100A5A00AF468F828E83E5822414F582E5833400C3
:100A6A00F583E4F0AE45AF468F828E83E58224108B
:100A7A00F582E5833400F583E4F0A3E4F0805F9027
:100A8A0002A2E0FFEF6057AE45AF468F828E83E544
:100A9A00822410F582E5833400F583E475F00112AF
:100AAA000FDCAFF0FED3EF9406EE940040307B01EA
:100ABA007A017943C003C002C0017BFF7A2F79A96A
:100ACA008B248A2589267527017BFF7A0079228B58
:100ADA00288A29892AD001D002D003123E24AE45A1
:100AEA00AF468F828E83A3A3E475F001120FC6AFBF
:100AFA00F0FE900234E0FCA3E0FDC3EF9DEE9C40C3
:100B0A0072AE45AF468F828E83E5822404F582E574
:100B1A00833400F583E0FEA3E0FF900233E0FD7C1E
:100B2A0000D3EF9DEE9C504BAE45AF468F828E832D
:100B3A00E0FEA3E0FFAC45AD468D828C83E58224BE
:100B4A0004F582E5833400F583E475F001120FDCC5
:100B5A00ADF0FCAA43AB448B828A83E5822405F577
:100B6A0082E5833400F583E5822DF582E5833CF541
:100B7A0083EFF0AE45AF468F828E83E5822404F57B
:100B8A0082E5833400F583E0FEA3E0FF900233E0C0
:100B9A00FD7C00D3EF9DEE9C501BAE45AF468F8285
:100BAA008E83A3A3E0FEA3E0FFD3EF9400EE9402AA
:100BBA005003020D9CE547701BAE45AF468F828EEF
:100BCA0083A3A3E0FEA3E0FFD3EF9400EE940250C8
:100BDA0003020D9CAE45AF468F828E83E5822414B4
:100BEA00F582E5833400F583E4F0AE45AF468F82A3
:100BFA008E83A3A3E4F0A3E4F0AE45AF468F828EC2
:100C0A0083E5822404F582E5833400F583E0FEA3BC
:100C1A00E0FF900233E0FD7C00D3EF9DEE9C500391
:100C2A00020D9C7B017A017943C003C002C0017B9B
:100C3A00FF7A2F79A98B248A2589267527017BFFBC
:100C4A007A0079228B288A29892AD001D002D003F6
:100C5A00123E24020D9CAE45AF468F828E83E582FA
:100C6A002414F582E5833400F583E0FFEF64026023
:100C7A0003020D9CAE45AF468F828E83A3A3E0FE8E
:100C8A00A3E0FFC3EF9412EE94004003020D28AED6
:100C9A0045AF468F828E83E0FEA3E0FFAC45AD46AA
:100CAA008D828C83A3A3E475F001120FDCADF0FCF6
:100CBA00AA43AB448B828A83E5822405F582E583C5
:100CCA003400F583E5822DF582E5833CF583EFF068
:100CDA00AE45AF468F828E83A3A3E0FEA3E0FFD387
:100CEA00EF9410EE94004003020D9CAE45AF468F80
:100CFA00828E83A3A3E0FEA3E0FFEF2404FFEE3479
:100D0A0000FEAC43AD448D828C83E5822FF582E5EB
:100D1A00833EF583E0FF9002AAE02FF08074AE458F
:100D2A00AF468F828E83E5822414F582E5833400F0
:100D3A00F583E4F0AE45AF468F828E83A3A3E4F039
:100D4A00A3E4F0AE43AF448F828E83E5822415F587
:100D5A0082E5833400F583E0FF9002AAE0FEEFB556
:100D6A0006307B017A01796FC003C002C0017BFFA4
:100D7A007A3E798F8B248A2589267527017BFF7A0B
:100D8A000079228B288A29892AD001D002D003121D
:100D9A003E24209903020EE4C299AE45AF468F82E3
:100DAA008E83E5822408F582E5833400F583E0FE2C
:100DBA00A3E0FFC3EF9412EE94004003020EAFAE1D
:100DCA0045AF468F828E83E5822408F582E5833417
:100DDA0000F583E0FEA3E0FFC3EF9410EE94005009
:100DEA003FAE45AF468F828E83E5822408F582E5C1
:100DFA00833400F583E0FEA3E0FFAC43AD448D826B
:100E0A008C83E582241DF582E5833400F583E5822F
:100E1A002FF582E5833EF583E0FF9002AFE02FF0E5
:100E2A00AE45AF468F828E83E5822408F582E5833C
:100E3A003400F583E0FEA3E0FFEF64104E702490C7
:100E4A0002AFE0FF1241FCAE45AF468F828E83E5CA
:100E5A00822408F582E5833400F583E475F00112F3
:100E6A000FC622AE45AF468F828E83E5822408F5EF
:100E7A0082E5833400F583E475F001120FDCAFF0EC
:100E8A00FEAC43AD448D828C83E582241DF582E558
:100E9A00833400F583E5822FF582E5833EF583E00E
:100EAA00FF1241FC22AE45AF468F828E83E5822433
:100EBA0008F582E5833400F583E4F0A3E4F0C28503
:100ECA00AE45AF468F828E83E582240CF582E58398
:0B0EDA003400F583E4F0A37401F02263
:103B1E001F0806001B100F1006180D181D180700A1
:103B2E001F180F180000002017181C0018181C1062
:103B3E0000101E1010100F181C181E080D18180853
:103B4E00190819181E0814101118131806001F084A
:103B5E001418161817081F101918190817080E1818
:023B6E0003183A
:102341004A02D0101010100000000100004A02C61D
:102351000A0A0A0A000100010000035C0102D043DD
:0523610002C3000000B2
:014238002263
:0B4197008F70E5706004157080F82246
:023E5A008F7166
:103E5C00787976007879E6FFEFC39408501FE57106
:103E6C0030E004D2968002C296C2947F0112419730
:103E7C00D294E571C313F57178790680D77F01125E
:023E8C0041975C
:013E8E002211
:104031008F72D2937F0A124197C2937F0A124197DE
:0B404100AF72123E5A7F0A1241972214
:103A03007F42124031D296787876007878E6FFEFDD
:103A1300C39402504B787776007877E6FFEFC39430
:103A23000850387878E6FF74C32FF582E43402F542
:103A330083E0FFEFC313FFEFF0C294D294309616E6
:103A43007878E6FF74C32FF582E43402F583E0FF50
:103A5300EF4480FFEFF078770680BE78780680AB7E
:023A6300D293FC
:013A6500223E
:103A66007F001240317F401240317FC012403190BA
:103A76003B32E493FF123E5A903B33E493FF123EEF
:103A86005A903B32E493FF123E5A903B33E493FF45
:103A9600123E5A903B32E493FF123E5A903B33E477
:103AA60093FF123E5A903B32E493FF123E5A903BEC
:0F3AB60033E493FF123E5A7F8A124031D293229B
:10267300900291E0FFEF7004123A66227F0012404D
:10268300317F401240317FC0124031AB5CAA5DA95B
:102693005E120EE5FFEF25E0241EF582E4343BF5E0
:1026A30083E493FF123E5AAB5CAA5DA95E75820474
:1026B300758300120EFEFFEF30E022AB5CAA5DA92A
:1026C3005E120EE5FFEF25E0241FF582E4343BF5AF
:1026D30083E493FFEF4420FF123E5A801CAB5CAAB5
:1026E3005DA95E120EE5FFEF25E0241FF582E434B9
:1026F3003BF583E493FF123E5AAB5CAA5DA95E757A
:102703008201758300120EFEFFEF25E0241EF58281
:10271300E4343BF583E493FF123E5AAB5CAA5DA914
:102723005E758204758300120EFEFFEF30E128AB65
:102733005CAA5DA95E758201758300120EFEFFEF30
:1027430025E0241FF582E4343BF583E493FFEF4453
:1027530020FF123E5A8022AB5CAA5DA95E758201FE
:10276300758300120EFEFFEF25E0241FF582E4348B
:102773003BF583E493FF123E5AAB5CAA5DA95E75F9
:102783008202758300120EFEFFEF25E0241EF58200
:10279300E4343BF583E493FF123E5AAB5CAA5DA994
:1027A3005E758204758300120EFEFFEF30E228ABE4
:1027B3005CAA5DA95E758202758300120EFEFFEFAF
:1027C30025E0241FF582E4343BF583E493FFEF44D3
:1027D30020FF123E5A8022AB5CAA5DA95E7582027D
:1027E300758300120EFEFFEF25E0241FF582E4340B
:1027F3003BF583E493FF123E5AAB5CAA5DA95E7579
:102803008203758300120EFEFFEF25E0241EF5827E
:10281300E4343BF583E493FF123E5AAB5CAA5DA913
:102823005E758204758300120EFEFFEF30E328AB62
:102833005CAA5DA95E758203758300120EFEFFEF2D
:1028430025E0241FF582E4343BF583E493FFEF4452
:1028530020FF123E5A8022AB5CAA5DA95E758203FB
:10286300758300120EFEFFEF25E0241FF582E4348A
:102873003BF583E493FF123E5A7F8A124031D29391
:012883002232
:103AC5008F488D498B4AAB5CAA5DA95EE548120F0C
:103AD5002BAB5CAA5DA95E758201758300E5491271
:103AE5000F3DAB5CAA5DA95E758202758300E54A50
:103AF500120F3DAB5CAA5DA95E758203758300E577
:103B05004B120F3DAB5CAA5DA95E758204758300FF
:093B1500E54C120F3D122673224B
:1023660060D800010000000000000000000000002E
:10237600000000000000000000000008000000024D
:102386000000000A0000000000000000000000003D
:10239600000000000000000000000000000000082F
:1023A600000000020000000A00000000000000001B
:1023B6000000000000000000000000000000000017
:1023C60000000008000000020000000A00000000F3
:1023D60000000000000000000000000000000000F7
:1023E6000000000000000008000000020000000AD3
:1023F60000000000000000000000000000000000D7
:1024060000000000000000000000000800000002BC
:102416000000000A000000000000000000000000AC
:10242600000000000000000000000000000000089E
:0C243600000000020000000A000000008E
:10288400900000E4F0900000E0FFEF6406605490D4
:102894000000E0FF74572FF582E43402F583E0FF73
:1028A4007E0090026DE0FCA3E0FD120F5FEFC4F820
:1028B400540FC868FFEEC454F048FE7C007DFF123C
:1028C4000F71E4FCFD900000E0FBEB25E025E02423
:1028D400F1F582E43400F5831211E9900000E0047C
:1028E400F080A290025DE0FEA3E0FFEF4E6008904E
:1028F400024FE0FFEF700890029DE0FFEF70377D1C
:10290400007C007F041230917D007C007F05123032
:10291400917D007C007F001230917D007C007F035C
:102924001230917D007C007F021230917D007C008A
:102934007F0012309122900215E0FEA3E0FFE4FC38
:10294400FD9000F1E0F8A3E0F9A3E0FAA3E0FB12A4
:10295400103C7BC87A00790078001210C7AD07AC30
:10296400067F04123091900217E0FEA3E0FFE4FC1E
:10297400FD9000F5E0F8A3E0F9A3E0FAA3E0FB1270
:10298400103C7BC87A00790078001210C7AD07AC00
:10299400067F05123091900219E0FEA3E0FFE4FCEB
:1029A400FD9000F9E0F8A3E0F9A3E0FAA3E0FB123C
:1029B400103C7BC87A00790078001210C7AD07ACD0
:1029C400067F0012309190021BE0FEA3E0FFE4FCBE
:1029D400FD9000FDE0F8A3E0F9A3E0FAA3E0FB1208
:1029E400103C7BC87A00790078001210C7AD07ACA0
:1029F400067F0312309190021DE0FEA3E0FFE4FC89
:102A0400FD900101E0F8A3E0F9A3E0FAA3E0FB12D2
:102A1400103C7BC87A00790078001210C7AD07AC6F
:102A2400067F0212309190021FE0FEA3E0FFE4FC57
:102A3400FD900109E0F8A3E0F9A3E0FAA3E0FB129A
:102A4400103C7BC87A00790078001210C7AD07AC3F
:062A5400067F0112309123
:012A5A002259
:1034F7008F1F8E1E8D1D8C1C53B1BF53B2BF53B18E
:103507007F53B27F75985243878053C4F843C420D2
:10351700AB1FAA1EA91DA81C7F407E427D0F7C0001
:103527001210C7A804A905AA06AB07C374FF9BFF1F
:1035370074FF9AFEE499FDE498FC780812116A8FEB
:10354700C6AB1FAA1EA91DA81C7F407E427D0F7C0B
:10355700001210C7A804A905AA06AB07C374FF9BEE
:10356700FF74FF9AFEE499FDE498FCEF54FFFFEE29
:103577005400FEED5400FDEC5400FC8FC543C40815
:013587002221
:0300000002345D6A
:10345D00787FE4F6D8FD9000007FFF7E03E4F0A3B3
:0A346D00DFFCDEFA7581790234B24B
:103477000239A0E493A3F8E493A34003F68001F292
:1034870008DFF48029E493A3F85407240CC8C33356
:10349700C4540F4420C8834004F456800146F6DF25
:1034A700E4800B0102040810204080902211E47E82
:1034B700019360BCA3FF543F30E509541FFEE4931A
:1034C700A360010ECF54C025E060A840B8E493A3E1
:1034D700FAE493A3F8E493A3C8C582C8CAC583CA0C
:1034E700F0A3C8C582C8CAC583CADFE9DEE780BEC4
:012442000099
:100EE500BB010689828A83E0225002E722BBFE020B
:090EF500E32289828A83E493223E
:100EFE00BB010CE58229F582E5833AF583E02250A9
:100F0E0006E92582F8E622BBFE06E92582F8E222F2
:0D0F1E00E58229F582E5833AF583E493220C
:100F2B00BB010689828A83F0225002F722BBFE01A5
:020F3B00F3229F
:100F3D00F8BB010DE58229F582E5833AF583E8F0EA
:100F4D00225006E92582C8F622BBFE05E92582C896
:020F5D00F2227E
:100F5F00EF8DF0A4A8F0CF8CF0A428CE8DF0A42EA6
:020F6F00FE2260
:100F7100BC000BBE0029EF8DF084FFADF022E4CC64
:100F8100F875F008EF2FFFEE33FEEC33FCEE9DEC2D
:100F9100984005FCEE9DFE0FD5F0E9E4CEFD22ED73
:100FA100F8F5F0EE8420D21CFEADF075F008EF2FBD
:100FB100FFED33FD4007985006D5F0F222C398FDAE
:050FC1000FD5F0EA224B
:100FC600C5F0F8A3E028F0C5F0F8E58215827002B6
:060FD6001583E038F02253
:100FDC00A3F8E0C5F025F0F0E582158270021583C8
:060FEC00E0C838F0E82225
:100FF200BB010A89828A83E0F5F0A3E022500687CA
:10100200F009E71922BBFE07E3F5F009E31922898B
:0B101200828A83E493F5F074019322BE
:10101D00BB010A89828A83F0E5F0A3F0225006F71E
:0F102D0009A7F01922BBFE06F3E5F009F319221B
:10103C00E88FF0A4CC8BF0A42CFCE98EF0A42CFC53
:10104C008AF0EDA42CFCEA8EF0A4CDA8F08BF0A4D1
:10105C002DCC3825F0FDE98FF0A42CCD35F0FCEB30
:10106C008EF0A4FEA9F0EB8FF0A4CFC5F02ECD39F5
:0F107C00FEE43CFCEAA42DCE35F0FDE43CFC2262
:10108B0075F008758200EF2FFFEE33FECD33CDCC1C
:10109B0033CCC58233C5829BED9AEC99E58298409F
:1010AB000CF582EE9BFEED9AFDEC99FC0FD5F0D67C
:1010BB00E4CEFBE4CDFAE4CCF9A88222B800C1B9A6
:1010CB000059BA002DEC8BF084CFCECDFCE5F0CBE4
:1010DB00F97818EF2FFFEE33FEED33FDEC33FCEB1D
:1010EB0033FB10D703994004EB99FB0FD8E5E4F9D8
:1010FB00FA227818EF2FFFEE33FEED33FDEC33FCC5
:10110B00C933C910D7059BE99A4007EC9BFCE99AB8
:10111B00F90FD8E0E4C9FAE4CCFB2275F010EF2FFD
:10112B00FFEE33FEED33FDCC33CCC833C810D707FD
:10113B009BEC9AE899400AED9BFDEC9AFCE899F838
:0E114B000FD5F0DAE4CDFBE4CCFAE4C8F922CB
:10115900EB9FF5F0EA9E42F0E99D42F0E89C45F0EC
:011169002263
:10116A00E8600FECC313FCED13FDEE13FEEF13FF63
:03117A00D8F12287
:10117D00BB010DE58229F582E5833AF5830211E97C
:10118D005007E92582F80211DDBBFE07E92582F83B
:04119D0002133422E3
:0C11A100E6FC08E6FD08E6FE08E6FF227A
:1011AD00BB010DE58229F582E5833AF58302130B28
:1011BD005007E92582F80212FEBBFE07E92582F8E9
:1011CD00021317E58229F582E5833AF5830213248C
:0C11DD00ECF608EDF608EEF608EFF6223E
:0C11E900ECF0A3EDF0A3EEF0A3EFF02279
:1011F500A8828583F0D083D08212120C12120C12B1
:10120500120C12120CE473E493A3C583C5F0C583D5
:10121500C8C582C8F0A3C583C5F0C583C8C582C843
:0112250022A6
:10122600BB011A89828A83D0F0D0E0F8D0E0F9D0E9
:10123600E0FAD0E0FBE8C0E0C0F002135B5016E92C
:10124600F8D083D082D0E0F9D0E0FAD0E0FBC082BB
:10125600C083021349BBFE16E9F8D083D082D0E0E2
:0F126600F9D0E0FAD0E0FBC082C08302136D2202
:10127500BB010DE58229F582E5833AF58302135218
:101285005007E92582F8021340BBFE07E92582F8DD
:10129500021364E58229F582E5833AF58302137624
:1012A500D083D082F8E4937012740193700DA3A3D8
:1012B50093F8740193F5828883E4737402936860EC
:0612C500EFA3A3A380DFEC
:1012CB00D083D082F8E4937012740193700DA3A3B2
:1012DB0093F8740193F5828883E473740293B5F0E9
:0D12EB00067403936860E9A3A3A3A380D851
:0612F8008A838982E47381
:0D12FE00E6FB08E6F908E6FA08E6CBF82260
:0C130B00E0F8A3E0F9A3E0FAA3E0FB2265
:0D131700E2FB08E2F908E2FA08E2CBF82256
:10132400E493F8740193F9740293FA740393FB221F
:0C133400ECF208EDF208EEF208EFF222F5
:09134000E6FB08E6FA08E6F922D2
:09134900EBF608EAF608E9F622C9
:09135200E0FBA3E0FAA3E0F9229C
:09135B00EBF0A3EAF0A3E9F02293
:09136400E2FB08E2FA08E2F922BA
:09136D00EBF208EAF208E9F222B1
:0C137600E493FB740193FA740293F922D3
:00000001FF
